{
	"_format": "hh-sol-artifact-1",
	"contractName": "Escrow",
	"sourceName": "contracts/Escrow.sol",
	"abi": [
		{
			"inputs": [
				{
					"internalType": "address",
					"name": "_platformToken",
					"type": "address"
				}
			],
			"stateMutability": "nonpayable",
			"type": "constructor"
		},
		{
			"anonymous": false,
			"inputs": [
				{
					"indexed": true,
					"internalType": "uint256",
					"name": "challengeId",
					"type": "uint256"
				},
				{
					"indexed": true,
					"internalType": "address",
					"name": "creator",
					"type": "address"
				},
				{
					"indexed": false,
					"internalType": "uint256",
					"name": "stake",
					"type": "uint256"
				}
			],
			"name": "ChallengeCreated",
			"type": "event"
		},
		{
			"anonymous": false,
			"inputs": [
				{
					"indexed": false,
					"internalType": "address",
					"name": "creator",
					"type": "address"
				}
			],
			"name": "ChallengeInitiated",
			"type": "event"
		},
		{
			"anonymous": false,
			"inputs": [
				{
					"indexed": true,
					"internalType": "uint256",
					"name": "challengeId",
					"type": "uint256"
				},
				{
					"indexed": true,
					"internalType": "address",
					"name": "participant",
					"type": "address"
				}
			],
			"name": "ChallengeJoined",
			"type": "event"
		},
		{
			"anonymous": false,
			"inputs": [
				{
					"indexed": true,
					"internalType": "uint256",
					"name": "challengeId",
					"type": "uint256"
				},
				{
					"indexed": true,
					"internalType": "address",
					"name": "winner",
					"type": "address"
				}
			],
			"name": "ChallengeResolved",
			"type": "event"
		},
		{
			"inputs": [
				{
					"internalType": "uint256",
					"name": "",
					"type": "uint256"
				}
			],
			"name": "challenges",
			"outputs": [
				{
					"internalType": "address",
					"name": "creator",
					"type": "address"
				},
				{
					"internalType": "address",
					"name": "participant",
					"type": "address"
				},
				{
					"internalType": "uint256",
					"name": "stake",
					"type": "uint256"
				},
				{
					"internalType": "bool",
					"name": "completed",
					"type": "bool"
				},
				{
					"internalType": "address",
					"name": "winner",
					"type": "address"
				}
			],
			"stateMutability": "view",
			"type": "function"
		},
		{
			"inputs": [],
			"name": "createP2CChallenge",
			"outputs": [],
			"stateMutability": "nonpayable",
			"type": "function"
		},
		{
			"inputs": [],
			"name": "createP2PChallenge",
			"outputs": [],
			"stateMutability": "payable",
			"type": "function"
		},
		{
			"inputs": [
				{
					"internalType": "uint256",
					"name": "_challengeId",
					"type": "uint256"
				}
			],
			"name": "joinP2PChallenge",
			"outputs": [],
			"stateMutability": "payable",
			"type": "function"
		},
		{
			"inputs": [],
			"name": "nextChallengeId",
			"outputs": [
				{
					"internalType": "uint256",
					"name": "",
					"type": "uint256"
				}
			],
			"stateMutability": "view",
			"type": "function"
		},
		{
			"inputs": [],
			"name": "platformToken",
			"outputs": [
				{
					"internalType": "contract IERC20",
					"name": "",
					"type": "address"
				}
			],
			"stateMutability": "view",
			"type": "function"
		},
		{
			"inputs": [
				{
					"internalType": "uint256",
					"name": "_challengeId",
					"type": "uint256"
				}
			],
			"name": "resolveP2CChallenge",
			"outputs": [],
			"stateMutability": "nonpayable",
			"type": "function"
		},
		{
			"inputs": [
				{
					"internalType": "uint256",
					"name": "_challengeId",
					"type": "uint256"
				},
				{
					"internalType": "address",
					"name": "_winner",
					"type": "address"
				}
			],
			"name": "resolveP2PChallenge",
			"outputs": [],
			"stateMutability": "nonpayable",
			"type": "function"
		}
	],
	"bytecode": "0x608060405234801561001057600080fd5b50604051611721380380611721833981810160405281019061003291906100db565b806000806101000a81548173ffffffffffffffffffffffffffffffffffffffff021916908373ffffffffffffffffffffffffffffffffffffffff16021790555050610108565b600080fd5b600073ffffffffffffffffffffffffffffffffffffffff82169050919050565b60006100a88261007d565b9050919050565b6100b88161009d565b81146100c357600080fd5b50565b6000815190506100d5816100af565b92915050565b6000602082840312156100f1576100f0610078565b5b60006100ff848285016100c6565b91505092915050565b61160a806101176000396000f3fe60806040526004361061007b5760003560e01c8063bf3fab9e1161004e578063bf3fab9e1461011d578063d1b812cd14610127578063de72aecd14610152578063fc67aa501461017b5761007b565b80630ba11b7714610080578063336f7ea214610097578063423e80be146100b35780638f1d3776146100dc575b600080fd5b34801561008c57600080fd5b506100956101a6565b005b6100b160048036038101906100ac9190610f49565b6103f8565b005b3480156100bf57600080fd5b506100da60048036038101906100d59190610f49565b610606565b005b3480156100e857600080fd5b5061010360048036038101906100fe9190610f49565b61094b565b604051610114959493929190610fe1565b60405180910390f35b6101256109ee565b005b34801561013357600080fd5b5061013c610c58565b6040516101499190611093565b60405180910390f35b34801561015e57600080fd5b50610179600480360381019061017491906110da565b610c7c565b005b34801561018757600080fd5b50610190610f08565b60405161019d919061111a565b60405180910390f35b7f05513658ddffb6e044e9f3300b5237fe3b209080da57eb5c92a0d00a266761cf336040516101d59190611135565b60405180910390a16040518060a0016040528060008054906101000a900473ffffffffffffffffffffffffffffffffffffffff1673ffffffffffffffffffffffffffffffffffffffff1681526020013373ffffffffffffffffffffffffffffffffffffffff168152602001655af3107a40008152602001600015158152602001600073ffffffffffffffffffffffffffffffffffffffff1681525060016000600254815260200190815260200160002060008201518160000160006101000a81548173ffffffffffffffffffffffffffffffffffffffff021916908373ffffffffffffffffffffffffffffffffffffffff16021790555060208201518160010160006101000a81548173ffffffffffffffffffffffffffffffffffffffff021916908373ffffffffffffffffffffffffffffffffffffffff1602179055506040820151816002015560608201518160030160006101000a81548160ff02191690831515021790555060808201518160030160016101000a81548173ffffffffffffffffffffffffffffffffffffffff021916908373ffffffffffffffffffffffffffffffffffffffff1602179055509050506002600081548092919061039a9061117f565b91905055503373ffffffffffffffffffffffffffffffffffffffff166002547f4392aedf3bdc85e85ccf5c599cb7976a5b4f7b7189118379628127df3f40b104655af3107a40006040516103ee9190611202565b60405180910390a3565b6000600160008381526020019081526020016000209050600073ffffffffffffffffffffffffffffffffffffffff168160000160009054906101000a900473ffffffffffffffffffffffffffffffffffffffff1673ffffffffffffffffffffffffffffffffffffffff16036104a2576040517f08c379a00000000000000000000000000000000000000000000000000000000081526004016104999061127a565b60405180910390fd5b600073ffffffffffffffffffffffffffffffffffffffff168160010160009054906101000a900473ffffffffffffffffffffffffffffffffffffffff1673ffffffffffffffffffffffffffffffffffffffff1614610535576040517f08c379a000000000000000000000000000000000000000000000000000000000815260040161052c9061130c565b60405180910390fd5b8060020154341461057b576040517f08c379a00000000000000000000000000000000000000000000000000000000081526004016105729061139e565b60405180910390fd5b338160010160006101000a81548173ffffffffffffffffffffffffffffffffffffffff021916908373ffffffffffffffffffffffffffffffffffffffff1602179055503373ffffffffffffffffffffffffffffffffffffffff16827f690ecbabe96222b39728b512682860cc6460002a670ff94954038286bea0ba6960405160405180910390a35050565b7f05513658ddffb6e044e9f3300b5237fe3b209080da57eb5c92a0d00a266761cf336040516106359190611135565b60405180910390a160006001600083815260200190815260200160002090508060030160009054906101000a900460ff16156106a6576040517f08c379a000000000000000000000000000000000000000000000000000000000815260040161069d9061140a565b60405180910390fd5b8060000160009054906101000a900473ffffffffffffffffffffffffffffffffffffffff1673ffffffffffffffffffffffffffffffffffffffff163373ffffffffffffffffffffffffffffffffffffffff16148061075357508060010160009054906101000a900473ffffffffffffffffffffffffffffffffffffffff1673ffffffffffffffffffffffffffffffffffffffff163373ffffffffffffffffffffffffffffffffffffffff16145b610792576040517f08c379a000000000000000000000000000000000000000000000000000000000815260040161078990611476565b60405180910390fd5b60018160030160006101000a81548160ff021916908315150217905550338160030160016101000a81548173ffffffffffffffffffffffffffffffffffffffff021916908373ffffffffffffffffffffffffffffffffffffffff16021790555060008054906101000a900473ffffffffffffffffffffffffffffffffffffffff1673ffffffffffffffffffffffffffffffffffffffff166323b872dd8260000160009054906101000a900473ffffffffffffffffffffffffffffffffffffffff168360010160009054906101000a900473ffffffffffffffffffffffffffffffffffffffff1684600201546040518463ffffffff1660e01b815260040161089b93929190611496565b6020604051808303816000875af11580156108ba573d6000803e3d6000fd5b505050506040513d601f19601f820116820180604052508101906108de91906114f9565b508060010160009054906101000a900473ffffffffffffffffffffffffffffffffffffffff1673ffffffffffffffffffffffffffffffffffffffff16827fec85940b721008c8313b443a46533fcb1fab994e5d3e50629cc8503dfd2f209460405160405180910390a35050565b60016020528060005260406000206000915090508060000160009054906101000a900473ffffffffffffffffffffffffffffffffffffffff16908060010160009054906101000a900473ffffffffffffffffffffffffffffffffffffffff16908060020154908060030160009054906101000a900460ff16908060030160019054906101000a900473ffffffffffffffffffffffffffffffffffffffff16905085565b7f05513658ddffb6e044e9f3300b5237fe3b209080da57eb5c92a0d00a266761cf33604051610a1d9190611135565b60405180910390a160003411610a68576040517f08c379a0000000000000000000000000000000000000000000000000000000008152600401610a5f90611572565b60405180910390fd5b6040518060a001604052803373ffffffffffffffffffffffffffffffffffffffff168152602001600073ffffffffffffffffffffffffffffffffffffffff168152602001348152602001600015158152602001600073ffffffffffffffffffffffffffffffffffffffff1681525060016000600254815260200190815260200160002060008201518160000160006101000a81548173ffffffffffffffffffffffffffffffffffffffff021916908373ffffffffffffffffffffffffffffffffffffffff16021790555060208201518160010160006101000a81548173ffffffffffffffffffffffffffffffffffffffff021916908373ffffffffffffffffffffffffffffffffffffffff1602179055506040820151816002015560608201518160030160006101000a81548160ff02191690831515021790555060808201518160030160016101000a81548173ffffffffffffffffffffffffffffffffffffffff021916908373ffffffffffffffffffffffffffffffffffffffff16021790555090505060026000815480929190610c009061117f565b91905055503373ffffffffffffffffffffffffffffffffffffffff166002547f4392aedf3bdc85e85ccf5c599cb7976a5b4f7b7189118379628127df3f40b10434604051610c4e919061111a565b60405180910390a3565b60008054906101000a900473ffffffffffffffffffffffffffffffffffffffff1681565b7f05513658ddffb6e044e9f3300b5237fe3b209080da57eb5c92a0d00a266761cf33604051610cab9190611135565b60405180910390a160006001600084815260200190815260200160002090508060030160009054906101000a900460ff1615610d1c576040517f08c379a0000000000000000000000000000000000000000000000000000000008152600401610d139061140a565b60405180910390fd5b8060000160009054906101000a900473ffffffffffffffffffffffffffffffffffffffff1673ffffffffffffffffffffffffffffffffffffffff168273ffffffffffffffffffffffffffffffffffffffff161480610dc957508060010160009054906101000a900473ffffffffffffffffffffffffffffffffffffffff1673ffffffffffffffffffffffffffffffffffffffff168273ffffffffffffffffffffffffffffffffffffffff16145b610e08576040517f08c379a0000000000000000000000000000000000000000000000000000000008152600401610dff90611476565b60405180910390fd5b60018160030160006101000a81548160ff021916908315150217905550818160030160016101000a81548173ffffffffffffffffffffffffffffffffffffffff021916908373ffffffffffffffffffffffffffffffffffffffff1602179055508173ffffffffffffffffffffffffffffffffffffffff166108fc60028360020154610e939190611592565b9081150290604051600060405180830381858888f19350505050158015610ebe573d6000803e3d6000fd5b508173ffffffffffffffffffffffffffffffffffffffff16837fec85940b721008c8313b443a46533fcb1fab994e5d3e50629cc8503dfd2f209460405160405180910390a3505050565b60025481565b600080fd5b6000819050919050565b610f2681610f13565b8114610f3157600080fd5b50565b600081359050610f4381610f1d565b92915050565b600060208284031215610f5f57610f5e610f0e565b5b6000610f6d84828501610f34565b91505092915050565b600073ffffffffffffffffffffffffffffffffffffffff82169050919050565b6000610fa182610f76565b9050919050565b610fb181610f96565b82525050565b610fc081610f13565b82525050565b60008115159050919050565b610fdb81610fc6565b82525050565b600060a082019050610ff66000830188610fa8565b6110036020830187610fa8565b6110106040830186610fb7565b61101d6060830185610fd2565b61102a6080830184610fa8565b9695505050505050565b6000819050919050565b600061105961105461104f84610f76565b611034565b610f76565b9050919050565b600061106b8261103e565b9050919050565b600061107d82611060565b9050919050565b61108d81611072565b82525050565b60006020820190506110a86000830184611084565b92915050565b6110b781610f96565b81146110c257600080fd5b50565b6000813590506110d4816110ae565b92915050565b600080604083850312156110f1576110f0610f0e565b5b60006110ff85828601610f34565b9250506020611110858286016110c5565b9150509250929050565b600060208201905061112f6000830184610fb7565b92915050565b600060208201905061114a6000830184610fa8565b92915050565b7f4e487b7100000000000000000000000000000000000000000000000000000000600052601160045260246000fd5b600061118a82610f13565b91507fffffffffffffffffffffffffffffffffffffffffffffffffffffffffffffffff82036111bc576111bb611150565b5b600182019050919050565b6000819050919050565b60006111ec6111e76111e2846111c7565b611034565b610f13565b9050919050565b6111fc816111d1565b82525050565b600060208201905061121760008301846111f3565b92915050565b600082825260208201905092915050565b7f4368616c6c656e676520646f6573206e6f742065786973740000000000000000600082015250565b600061126460188361121d565b915061126f8261122e565b602082019050919050565b6000602082019050818103600083015261129381611257565b9050919050565b7f4368616c6c656e676520616c726561647920686173206120706172746963697060008201527f616e740000000000000000000000000000000000000000000000000000000000602082015250565b60006112f660238361121d565b91506113018261129a565b604082019050919050565b60006020820190508181036000830152611325816112e9565b9050919050565b7f5374616b65206d757374206d61746368207468652063726561746f722773207360008201527f74616b6500000000000000000000000000000000000000000000000000000000602082015250565b600061138860248361121d565b91506113938261132c565b604082019050919050565b600060208201905081810360008301526113b78161137b565b9050919050565b7f4368616c6c656e676520616c7265616479207265736f6c766564000000000000600082015250565b60006113f4601a8361121d565b91506113ff826113be565b602082019050919050565b60006020820190508181036000830152611423816113e7565b9050919050565b7f496e76616c69642077696e6e6572000000000000000000000000000000000000600082015250565b6000611460600e8361121d565b915061146b8261142a565b602082019050919050565b6000602082019050818103600083015261148f81611453565b9050919050565b60006060820190506114ab6000830186610fa8565b6114b86020830185610fa8565b6114c56040830184610fb7565b949350505050565b6114d681610fc6565b81146114e157600080fd5b50565b6000815190506114f3816114cd565b92915050565b60006020828403121561150f5761150e610f0e565b5b600061151d848285016114e4565b91505092915050565b7f5374616b65206d757374206d61746368207468652073656e7420616d6f756e74600082015250565b600061155c60208361121d565b915061156782611526565b602082019050919050565b6000602082019050818103600083015261158b8161154f565b9050919050565b600061159d82610f13565b91506115a883610f13565b92508282026115b681610f13565b915082820484148315176115cd576115cc611150565b5b509291505056fea2646970667358221220a39ed60fdd6f77a79c22ffb090cdee7af62a27fbc2f73d0da770654e8a7849b264736f6c634300081a0033",
	"linkReferences": {},
	"deployedLinkReferences": {}
}