{
	"_format": "hh-sol-artifact-1",
	"contractName": "Escrow",
	"sourceName": "contracts/Escrow.sol",
	"abi": [
		{
			"inputs": [
				{
					"internalType": "address",
					"name": "_platformToken",
					"type": "address"
				}
			],
			"stateMutability": "nonpayable",
			"type": "constructor"
		},
		{
			"anonymous": false,
			"inputs": [
				{
					"indexed": true,
					"internalType": "uint256",
					"name": "challengeId",
					"type": "uint256"
				},
				{
					"indexed": true,
					"internalType": "address",
					"name": "creator",
					"type": "address"
				},
				{
					"indexed": false,
					"internalType": "uint256",
					"name": "stake",
					"type": "uint256"
				}
			],
			"name": "ChallengeCreated",
			"type": "event"
		},
		{
			"anonymous": false,
			"inputs": [
				{
					"indexed": false,
					"internalType": "address",
					"name": "creator",
					"type": "address"
				}
			],
			"name": "ChallengeInitiated",
			"type": "event"
		},
		{
			"anonymous": false,
			"inputs": [
				{
					"indexed": true,
					"internalType": "uint256",
					"name": "challengeId",
					"type": "uint256"
				},
				{
					"indexed": true,
					"internalType": "address",
					"name": "participant",
					"type": "address"
				}
			],
			"name": "ChallengeJoined",
			"type": "event"
		},
		{
			"anonymous": false,
			"inputs": [
				{
					"indexed": true,
					"internalType": "uint256",
					"name": "challengeId",
					"type": "uint256"
				},
				{
					"indexed": true,
					"internalType": "address",
					"name": "winner",
					"type": "address"
				}
			],
			"name": "ChallengeResolved",
			"type": "event"
		},
		{
			"inputs": [
				{
					"internalType": "uint256",
					"name": "",
					"type": "uint256"
				}
			],
			"name": "challenges",
			"outputs": [
				{
					"internalType": "address",
					"name": "creator",
					"type": "address"
				},
				{
					"internalType": "address",
					"name": "participant",
					"type": "address"
				},
				{
					"internalType": "uint256",
					"name": "stake",
					"type": "uint256"
				},
				{
					"internalType": "bool",
					"name": "completed",
					"type": "bool"
				},
				{
					"internalType": "address",
					"name": "winner",
					"type": "address"
				}
			],
			"stateMutability": "view",
			"type": "function"
		},
		{
			"inputs": [],
			"name": "createP2CChallenge",
			"outputs": [],
			"stateMutability": "nonpayable",
			"type": "function"
		},
		{
			"inputs": [],
			"name": "createP2PChallenge",
			"outputs": [],
			"stateMutability": "payable",
			"type": "function"
		},
		{
			"inputs": [
				{
					"internalType": "uint256",
					"name": "_challengeId",
					"type": "uint256"
				}
			],
			"name": "joinP2PChallenge",
			"outputs": [],
			"stateMutability": "payable",
			"type": "function"
		},
		{
			"inputs": [],
			"name": "nextChallengeId",
			"outputs": [
				{
					"internalType": "uint256",
					"name": "",
					"type": "uint256"
				}
			],
			"stateMutability": "view",
			"type": "function"
		},
		{
			"inputs": [],
			"name": "platformToken",
			"outputs": [
				{
					"internalType": "contract IERC20",
					"name": "",
					"type": "address"
				}
			],
			"stateMutability": "view",
			"type": "function"
		},
		{
			"inputs": [
				{
					"internalType": "uint256",
					"name": "_challengeId",
					"type": "uint256"
				}
			],
			"name": "resolveP2CChallenge",
			"outputs": [],
			"stateMutability": "nonpayable",
			"type": "function"
		},
		{
			"inputs": [
				{
					"internalType": "uint256",
					"name": "_challengeId",
					"type": "uint256"
				}
			],
			"name": "resolveP2PChallenge",
			"outputs": [],
			"stateMutability": "nonpayable",
			"type": "function"
		}
	],
	"bytecode": "0x608060405234801561001057600080fd5b506040516115c83803806115c8833981810160405281019061003291906100db565b806000806101000a81548173ffffffffffffffffffffffffffffffffffffffff021916908373ffffffffffffffffffffffffffffffffffffffff16021790555050610108565b600080fd5b600073ffffffffffffffffffffffffffffffffffffffff82169050919050565b60006100a88261007d565b9050919050565b6100b88161009d565b81146100c357600080fd5b50565b6000815190506100d5816100af565b92915050565b6000602082840312156100f1576100f0610078565b5b60006100ff848285016100c6565b91505092915050565b6114b1806101176000396000f3fe60806040526004361061007b5760003560e01c80638f1d37761161004e5780638f1d377614610105578063bf3fab9e14610146578063d1b812cd14610150578063fc67aa501461017b5761007b565b80630ba11b7714610080578063336f7ea214610097578063423e80be146100b35780636ce19d1f146100dc575b600080fd5b34801561008c57600080fd5b506100956101a6565b005b6100b160048036038101906100ac9190610e5c565b6103f8565b005b3480156100bf57600080fd5b506100da60048036038101906100d59190610e5c565b610606565b005b3480156100e857600080fd5b5061010360048036038101906100fe9190610e5c565b61094b565b005b34801561011157600080fd5b5061012c60048036038101906101279190610e5c565b610aea565b60405161013d959493929190610ef4565b60405180910390f35b61014e610b8d565b005b34801561015c57600080fd5b50610165610df7565b6040516101729190610fa6565b60405180910390f35b34801561018757600080fd5b50610190610e1b565b60405161019d9190610fc1565b60405180910390f35b7f05513658ddffb6e044e9f3300b5237fe3b209080da57eb5c92a0d00a266761cf336040516101d59190610fdc565b60405180910390a16040518060a0016040528060008054906101000a900473ffffffffffffffffffffffffffffffffffffffff1673ffffffffffffffffffffffffffffffffffffffff1681526020013373ffffffffffffffffffffffffffffffffffffffff1681526020016509184e72a0008152602001600015158152602001600073ffffffffffffffffffffffffffffffffffffffff1681525060016000600254815260200190815260200160002060008201518160000160006101000a81548173ffffffffffffffffffffffffffffffffffffffff021916908373ffffffffffffffffffffffffffffffffffffffff16021790555060208201518160010160006101000a81548173ffffffffffffffffffffffffffffffffffffffff021916908373ffffffffffffffffffffffffffffffffffffffff1602179055506040820151816002015560608201518160030160006101000a81548160ff02191690831515021790555060808201518160030160016101000a81548173ffffffffffffffffffffffffffffffffffffffff021916908373ffffffffffffffffffffffffffffffffffffffff1602179055509050506002600081548092919061039a90611026565b91905055503373ffffffffffffffffffffffffffffffffffffffff166002547f4392aedf3bdc85e85ccf5c599cb7976a5b4f7b7189118379628127df3f40b104655af3107a40006040516103ee91906110a9565b60405180910390a3565b6000600160008381526020019081526020016000209050600073ffffffffffffffffffffffffffffffffffffffff168160000160009054906101000a900473ffffffffffffffffffffffffffffffffffffffff1673ffffffffffffffffffffffffffffffffffffffff16036104a2576040517f08c379a000000000000000000000000000000000000000000000000000000000815260040161049990611121565b60405180910390fd5b600073ffffffffffffffffffffffffffffffffffffffff168160010160009054906101000a900473ffffffffffffffffffffffffffffffffffffffff1673ffffffffffffffffffffffffffffffffffffffff1614610535576040517f08c379a000000000000000000000000000000000000000000000000000000000815260040161052c906111b3565b60405180910390fd5b8060020154341461057b576040517f08c379a000000000000000000000000000000000000000000000000000000000815260040161057290611245565b60405180910390fd5b338160010160006101000a81548173ffffffffffffffffffffffffffffffffffffffff021916908373ffffffffffffffffffffffffffffffffffffffff1602179055503373ffffffffffffffffffffffffffffffffffffffff16827f690ecbabe96222b39728b512682860cc6460002a670ff94954038286bea0ba6960405160405180910390a35050565b7f05513658ddffb6e044e9f3300b5237fe3b209080da57eb5c92a0d00a266761cf336040516106359190610fdc565b60405180910390a160006001600083815260200190815260200160002090508060030160009054906101000a900460ff16156106a6576040517f08c379a000000000000000000000000000000000000000000000000000000000815260040161069d906112b1565b60405180910390fd5b8060000160009054906101000a900473ffffffffffffffffffffffffffffffffffffffff1673ffffffffffffffffffffffffffffffffffffffff163373ffffffffffffffffffffffffffffffffffffffff16148061075357508060010160009054906101000a900473ffffffffffffffffffffffffffffffffffffffff1673ffffffffffffffffffffffffffffffffffffffff163373ffffffffffffffffffffffffffffffffffffffff16145b610792576040517f08c379a00000000000000000000000000000000000000000000000000000000081526004016107899061131d565b60405180910390fd5b60018160030160006101000a81548160ff021916908315150217905550338160030160016101000a81548173ffffffffffffffffffffffffffffffffffffffff021916908373ffffffffffffffffffffffffffffffffffffffff16021790555060008054906101000a900473ffffffffffffffffffffffffffffffffffffffff1673ffffffffffffffffffffffffffffffffffffffff166323b872dd8260000160009054906101000a900473ffffffffffffffffffffffffffffffffffffffff168360010160009054906101000a900473ffffffffffffffffffffffffffffffffffffffff1684600201546040518463ffffffff1660e01b815260040161089b9392919061133d565b6020604051808303816000875af11580156108ba573d6000803e3d6000fd5b505050506040513d601f19601f820116820180604052508101906108de91906113a0565b508060010160009054906101000a900473ffffffffffffffffffffffffffffffffffffffff1673ffffffffffffffffffffffffffffffffffffffff16827fec85940b721008c8313b443a46533fcb1fab994e5d3e50629cc8503dfd2f209460405160405180910390a35050565b7f05513658ddffb6e044e9f3300b5237fe3b209080da57eb5c92a0d00a266761cf3360405161097a9190610fdc565b60405180910390a160006001600083815260200190815260200160002090508060030160009054906101000a900460ff16156109eb576040517f08c379a00000000000000000000000000000000000000000000000000000000081526004016109e2906112b1565b60405180910390fd5b60018160030160006101000a81548160ff021916908315150217905550338160030160016101000a81548173ffffffffffffffffffffffffffffffffffffffff021916908373ffffffffffffffffffffffffffffffffffffffff1602179055503373ffffffffffffffffffffffffffffffffffffffff166108fc60028360020154610a7691906113cd565b9081150290604051600060405180830381858888f19350505050158015610aa1573d6000803e3d6000fd5b503373ffffffffffffffffffffffffffffffffffffffff16827fec85940b721008c8313b443a46533fcb1fab994e5d3e50629cc8503dfd2f209460405160405180910390a35050565b60016020528060005260406000206000915090508060000160009054906101000a900473ffffffffffffffffffffffffffffffffffffffff16908060010160009054906101000a900473ffffffffffffffffffffffffffffffffffffffff16908060020154908060030160009054906101000a900460ff16908060030160019054906101000a900473ffffffffffffffffffffffffffffffffffffffff16905085565b7f05513658ddffb6e044e9f3300b5237fe3b209080da57eb5c92a0d00a266761cf33604051610bbc9190610fdc565b60405180910390a160003411610c07576040517f08c379a0000000000000000000000000000000000000000000000000000000008152600401610bfe9061145b565b60405180910390fd5b6040518060a001604052803373ffffffffffffffffffffffffffffffffffffffff168152602001600073ffffffffffffffffffffffffffffffffffffffff168152602001348152602001600015158152602001600073ffffffffffffffffffffffffffffffffffffffff1681525060016000600254815260200190815260200160002060008201518160000160006101000a81548173ffffffffffffffffffffffffffffffffffffffff021916908373ffffffffffffffffffffffffffffffffffffffff16021790555060208201518160010160006101000a81548173ffffffffffffffffffffffffffffffffffffffff021916908373ffffffffffffffffffffffffffffffffffffffff1602179055506040820151816002015560608201518160030160006101000a81548160ff02191690831515021790555060808201518160030160016101000a81548173ffffffffffffffffffffffffffffffffffffffff021916908373ffffffffffffffffffffffffffffffffffffffff16021790555090505060026000815480929190610d9f90611026565b91905055503373ffffffffffffffffffffffffffffffffffffffff166002547f4392aedf3bdc85e85ccf5c599cb7976a5b4f7b7189118379628127df3f40b10434604051610ded9190610fc1565b60405180910390a3565b60008054906101000a900473ffffffffffffffffffffffffffffffffffffffff1681565b60025481565b600080fd5b6000819050919050565b610e3981610e26565b8114610e4457600080fd5b50565b600081359050610e5681610e30565b92915050565b600060208284031215610e7257610e71610e21565b5b6000610e8084828501610e47565b91505092915050565b600073ffffffffffffffffffffffffffffffffffffffff82169050919050565b6000610eb482610e89565b9050919050565b610ec481610ea9565b82525050565b610ed381610e26565b82525050565b60008115159050919050565b610eee81610ed9565b82525050565b600060a082019050610f096000830188610ebb565b610f166020830187610ebb565b610f236040830186610eca565b610f306060830185610ee5565b610f3d6080830184610ebb565b9695505050505050565b6000819050919050565b6000610f6c610f67610f6284610e89565b610f47565b610e89565b9050919050565b6000610f7e82610f51565b9050919050565b6000610f9082610f73565b9050919050565b610fa081610f85565b82525050565b6000602082019050610fbb6000830184610f97565b92915050565b6000602082019050610fd66000830184610eca565b92915050565b6000602082019050610ff16000830184610ebb565b92915050565b7f4e487b7100000000000000000000000000000000000000000000000000000000600052601160045260246000fd5b600061103182610e26565b91507fffffffffffffffffffffffffffffffffffffffffffffffffffffffffffffffff820361106357611062610ff7565b5b600182019050919050565b6000819050919050565b600061109361108e6110898461106e565b610f47565b610e26565b9050919050565b6110a381611078565b82525050565b60006020820190506110be600083018461109a565b92915050565b600082825260208201905092915050565b7f4368616c6c656e676520646f6573206e6f742065786973740000000000000000600082015250565b600061110b6018836110c4565b9150611116826110d5565b602082019050919050565b6000602082019050818103600083015261113a816110fe565b9050919050565b7f4368616c6c656e676520616c726561647920686173206120706172746963697060008201527f616e740000000000000000000000000000000000000000000000000000000000602082015250565b600061119d6023836110c4565b91506111a882611141565b604082019050919050565b600060208201905081810360008301526111cc81611190565b9050919050565b7f5374616b65206d757374206d61746368207468652063726561746f722773207360008201527f74616b6500000000000000000000000000000000000000000000000000000000602082015250565b600061122f6024836110c4565b915061123a826111d3565b604082019050919050565b6000602082019050818103600083015261125e81611222565b9050919050565b7f4368616c6c656e676520616c7265616479207265736f6c766564000000000000600082015250565b600061129b601a836110c4565b91506112a682611265565b602082019050919050565b600060208201905081810360008301526112ca8161128e565b9050919050565b7f496e76616c69642077696e6e6572000000000000000000000000000000000000600082015250565b6000611307600e836110c4565b9150611312826112d1565b602082019050919050565b60006020820190508181036000830152611336816112fa565b9050919050565b60006060820190506113526000830186610ebb565b61135f6020830185610ebb565b61136c6040830184610eca565b949350505050565b61137d81610ed9565b811461138857600080fd5b50565b60008151905061139a81611374565b92915050565b6000602082840312156113b6576113b5610e21565b5b60006113c48482850161138b565b91505092915050565b60006113d882610e26565b91506113e383610e26565b92508282026113f181610e26565b9150828204841483151761140857611407610ff7565b5b5092915050565b7f5374616b65206d757374206d61746368207468652073656e7420616d6f756e74600082015250565b60006114456020836110c4565b91506114508261140f565b602082019050919050565b6000602082019050818103600083015261147481611438565b905091905056fea2646970667358221220a6168771422766e694066b7c7f0473944b242fa76fbeabf30bafb8983837cc6464736f6c634300081a0033",
	"linkReferences": {},
	"deployedLinkReferences": {}
}