{
	"_format": "hh-sol-artifact-1",
	"contractName": "Escrow",
	"sourceName": "contracts/Escrow.sol",
	"abi": [
		{
			"inputs": [
				{
					"internalType": "address",
					"name": "_platformToken",
					"type": "address"
				}
			],
			"stateMutability": "nonpayable",
			"type": "constructor"
		},
		{
			"anonymous": false,
			"inputs": [
				{
					"indexed": true,
					"internalType": "uint256",
					"name": "challengeId",
					"type": "uint256"
				},
				{
					"indexed": true,
					"internalType": "address",
					"name": "creator",
					"type": "address"
				},
				{
					"indexed": false,
					"internalType": "uint256",
					"name": "stake",
					"type": "uint256"
				}
			],
			"name": "ChallengeCreated",
			"type": "event"
		},
		{
			"anonymous": false,
			"inputs": [
				{
					"indexed": true,
					"internalType": "uint256",
					"name": "challengeId",
					"type": "uint256"
				},
				{
					"indexed": true,
					"internalType": "address",
					"name": "participant",
					"type": "address"
				}
			],
			"name": "ChallengeJoined",
			"type": "event"
		},
		{
			"anonymous": false,
			"inputs": [
				{
					"indexed": true,
					"internalType": "uint256",
					"name": "challengeId",
					"type": "uint256"
				},
				{
					"indexed": true,
					"internalType": "address",
					"name": "winner",
					"type": "address"
				}
			],
			"name": "ChallengeResolved",
			"type": "event"
		},
		{
			"inputs": [
				{
					"internalType": "uint256",
					"name": "",
					"type": "uint256"
				}
			],
			"name": "challenges",
			"outputs": [
				{
					"internalType": "address",
					"name": "creator",
					"type": "address"
				},
				{
					"internalType": "address",
					"name": "participant",
					"type": "address"
				},
				{
					"internalType": "uint256",
					"name": "stake",
					"type": "uint256"
				},
				{
					"internalType": "bool",
					"name": "completed",
					"type": "bool"
				},
				{
					"internalType": "address",
					"name": "winner",
					"type": "address"
				}
			],
			"stateMutability": "view",
			"type": "function"
		},
		{
			"inputs": [],
			"name": "createP2CChallenge",
			"outputs": [],
			"stateMutability": "nonpayable",
			"type": "function"
		},
		{
			"inputs": [
				{
					"internalType": "uint256",
					"name": "_stake",
					"type": "uint256"
				}
			],
			"name": "createP2PChallenge",
			"outputs": [],
			"stateMutability": "payable",
			"type": "function"
		},
		{
			"inputs": [
				{
					"internalType": "uint256",
					"name": "_challengeId",
					"type": "uint256"
				}
			],
			"name": "joinP2PChallenge",
			"outputs": [],
			"stateMutability": "payable",
			"type": "function"
		},
		{
			"inputs": [],
			"name": "nextChallengeId",
			"outputs": [
				{
					"internalType": "uint256",
					"name": "",
					"type": "uint256"
				}
			],
			"stateMutability": "view",
			"type": "function"
		},
		{
			"inputs": [],
			"name": "platformToken",
			"outputs": [
				{
					"internalType": "contract IERC20",
					"name": "",
					"type": "address"
				}
			],
			"stateMutability": "view",
			"type": "function"
		},
		{
			"inputs": [
				{
					"internalType": "uint256",
					"name": "_challengeId",
					"type": "uint256"
				}
			],
			"name": "resolveP2CChallenge",
			"outputs": [],
			"stateMutability": "nonpayable",
			"type": "function"
		},
		{
			"inputs": [
				{
					"internalType": "uint256",
					"name": "_challengeId",
					"type": "uint256"
				},
				{
					"internalType": "address",
					"name": "_winner",
					"type": "address"
				}
			],
			"name": "resolveP2PChallenge",
			"outputs": [],
			"stateMutability": "nonpayable",
			"type": "function"
		}
	],
	"bytecode": "0x608060405234801561001057600080fd5b50604051611634380380611634833981810160405281019061003291906100db565b806000806101000a81548173ffffffffffffffffffffffffffffffffffffffff021916908373ffffffffffffffffffffffffffffffffffffffff16021790555050610108565b600080fd5b600073ffffffffffffffffffffffffffffffffffffffff82169050919050565b60006100a88261007d565b9050919050565b6100b88161009d565b81146100c357600080fd5b50565b6000815190506100d5816100af565b92915050565b6000602082840312156100f1576100f0610078565b5b60006100ff848285016100c6565b91505092915050565b61151d806101176000396000f3fe60806040526004361061007b5760003560e01c80638f1d37761161004e5780638f1d3776146100f8578063d1b812cd14610139578063de72aecd14610164578063fc67aa501461018d5761007b565b80630ba11b7714610080578063336f7ea214610097578063423e80be146100b3578063569766e9146100dc575b600080fd5b34801561008c57600080fd5b506100956101b8565b005b6100b160048036038101906100ac9190610e77565b6103cb565b005b3480156100bf57600080fd5b506100da60048036038101906100d59190610e77565b6105d9565b005b6100f660048036038101906100f19190610e77565b6108e7565b005b34801561010457600080fd5b5061011f600480360381019061011a9190610e77565b610b1a565b604051610130959493929190610f0f565b60405180910390f35b34801561014557600080fd5b5061014e610bbd565b60405161015b9190610fc1565b60405180910390f35b34801561017057600080fd5b5061018b60048036038101906101869190611008565b610be1565b005b34801561019957600080fd5b506101a2610e36565b6040516101af9190611048565b60405180910390f35b6040518060a0016040528060008054906101000a900473ffffffffffffffffffffffffffffffffffffffff1673ffffffffffffffffffffffffffffffffffffffff1681526020013373ffffffffffffffffffffffffffffffffffffffff1681526020016103e88152602001600015158152602001600073ffffffffffffffffffffffffffffffffffffffff1681525060016000600254815260200190815260200160002060008201518160000160006101000a81548173ffffffffffffffffffffffffffffffffffffffff021916908373ffffffffffffffffffffffffffffffffffffffff16021790555060208201518160010160006101000a81548173ffffffffffffffffffffffffffffffffffffffff021916908373ffffffffffffffffffffffffffffffffffffffff1602179055506040820151816002015560608201518160030160006101000a81548160ff02191690831515021790555060808201518160030160016101000a81548173ffffffffffffffffffffffffffffffffffffffff021916908373ffffffffffffffffffffffffffffffffffffffff1602179055509050503373ffffffffffffffffffffffffffffffffffffffff166002547f4392aedf3bdc85e85ccf5c599cb7976a5b4f7b7189118379628127df3f40b1046103e86040516103a9919061109e565b60405180910390a3600260008154809291906103c4906110e8565b9190505550565b6000600160008381526020019081526020016000209050600073ffffffffffffffffffffffffffffffffffffffff168160000160009054906101000a900473ffffffffffffffffffffffffffffffffffffffff1673ffffffffffffffffffffffffffffffffffffffff1603610475576040517f08c379a000000000000000000000000000000000000000000000000000000000815260040161046c9061118d565b60405180910390fd5b600073ffffffffffffffffffffffffffffffffffffffff168160010160009054906101000a900473ffffffffffffffffffffffffffffffffffffffff1673ffffffffffffffffffffffffffffffffffffffff1614610508576040517f08c379a00000000000000000000000000000000000000000000000000000000081526004016104ff9061121f565b60405180910390fd5b8060020154341461054e576040517f08c379a0000000000000000000000000000000000000000000000000000000008152600401610545906112b1565b60405180910390fd5b338160010160006101000a81548173ffffffffffffffffffffffffffffffffffffffff021916908373ffffffffffffffffffffffffffffffffffffffff1602179055503373ffffffffffffffffffffffffffffffffffffffff16827f690ecbabe96222b39728b512682860cc6460002a670ff94954038286bea0ba6960405160405180910390a35050565b60006001600083815260200190815260200160002090508060030160009054906101000a900460ff1615610642576040517f08c379a00000000000000000000000000000000000000000000000000000000081526004016106399061131d565b60405180910390fd5b8060000160009054906101000a900473ffffffffffffffffffffffffffffffffffffffff1673ffffffffffffffffffffffffffffffffffffffff163373ffffffffffffffffffffffffffffffffffffffff1614806106ef57508060010160009054906101000a900473ffffffffffffffffffffffffffffffffffffffff1673ffffffffffffffffffffffffffffffffffffffff163373ffffffffffffffffffffffffffffffffffffffff16145b61072e576040517f08c379a000000000000000000000000000000000000000000000000000000000815260040161072590611389565b60405180910390fd5b60018160030160006101000a81548160ff021916908315150217905550338160030160016101000a81548173ffffffffffffffffffffffffffffffffffffffff021916908373ffffffffffffffffffffffffffffffffffffffff16021790555060008054906101000a900473ffffffffffffffffffffffffffffffffffffffff1673ffffffffffffffffffffffffffffffffffffffff166323b872dd8260000160009054906101000a900473ffffffffffffffffffffffffffffffffffffffff168360010160009054906101000a900473ffffffffffffffffffffffffffffffffffffffff1684600201546040518463ffffffff1660e01b8152600401610837939291906113a9565b6020604051808303816000875af1158015610856573d6000803e3d6000fd5b505050506040513d601f19601f8201168201806040525081019061087a919061140c565b508060010160009054906101000a900473ffffffffffffffffffffffffffffffffffffffff1673ffffffffffffffffffffffffffffffffffffffff16827fec85940b721008c8313b443a46533fcb1fab994e5d3e50629cc8503dfd2f209460405160405180910390a35050565b803414610929576040517f08c379a000000000000000000000000000000000000000000000000000000000815260040161092090611485565b60405180910390fd5b6040518060a001604052803373ffffffffffffffffffffffffffffffffffffffff168152602001600073ffffffffffffffffffffffffffffffffffffffff168152602001828152602001600015158152602001600073ffffffffffffffffffffffffffffffffffffffff1681525060016000600254815260200190815260200160002060008201518160000160006101000a81548173ffffffffffffffffffffffffffffffffffffffff021916908373ffffffffffffffffffffffffffffffffffffffff16021790555060208201518160010160006101000a81548173ffffffffffffffffffffffffffffffffffffffff021916908373ffffffffffffffffffffffffffffffffffffffff1602179055506040820151816002015560608201518160030160006101000a81548160ff02191690831515021790555060808201518160030160016101000a81548173ffffffffffffffffffffffffffffffffffffffff021916908373ffffffffffffffffffffffffffffffffffffffff1602179055509050503373ffffffffffffffffffffffffffffffffffffffff166002547f4392aedf3bdc85e85ccf5c599cb7976a5b4f7b7189118379628127df3f40b10483604051610af79190611048565b60405180910390a360026000815480929190610b12906110e8565b919050555050565b60016020528060005260406000206000915090508060000160009054906101000a900473ffffffffffffffffffffffffffffffffffffffff16908060010160009054906101000a900473ffffffffffffffffffffffffffffffffffffffff16908060020154908060030160009054906101000a900460ff16908060030160019054906101000a900473ffffffffffffffffffffffffffffffffffffffff16905085565b60008054906101000a900473ffffffffffffffffffffffffffffffffffffffff1681565b60006001600084815260200190815260200160002090508060030160009054906101000a900460ff1615610c4a576040517f08c379a0000000000000000000000000000000000000000000000000000000008152600401610c419061131d565b60405180910390fd5b8060000160009054906101000a900473ffffffffffffffffffffffffffffffffffffffff1673ffffffffffffffffffffffffffffffffffffffff168273ffffffffffffffffffffffffffffffffffffffff161480610cf757508060010160009054906101000a900473ffffffffffffffffffffffffffffffffffffffff1673ffffffffffffffffffffffffffffffffffffffff168273ffffffffffffffffffffffffffffffffffffffff16145b610d36576040517f08c379a0000000000000000000000000000000000000000000000000000000008152600401610d2d90611389565b60405180910390fd5b60018160030160006101000a81548160ff021916908315150217905550818160030160016101000a81548173ffffffffffffffffffffffffffffffffffffffff021916908373ffffffffffffffffffffffffffffffffffffffff1602179055508173ffffffffffffffffffffffffffffffffffffffff166108fc60028360020154610dc191906114a5565b9081150290604051600060405180830381858888f19350505050158015610dec573d6000803e3d6000fd5b508173ffffffffffffffffffffffffffffffffffffffff16837fec85940b721008c8313b443a46533fcb1fab994e5d3e50629cc8503dfd2f209460405160405180910390a3505050565b60025481565b600080fd5b6000819050919050565b610e5481610e41565b8114610e5f57600080fd5b50565b600081359050610e7181610e4b565b92915050565b600060208284031215610e8d57610e8c610e3c565b5b6000610e9b84828501610e62565b91505092915050565b600073ffffffffffffffffffffffffffffffffffffffff82169050919050565b6000610ecf82610ea4565b9050919050565b610edf81610ec4565b82525050565b610eee81610e41565b82525050565b60008115159050919050565b610f0981610ef4565b82525050565b600060a082019050610f246000830188610ed6565b610f316020830187610ed6565b610f3e6040830186610ee5565b610f4b6060830185610f00565b610f586080830184610ed6565b9695505050505050565b6000819050919050565b6000610f87610f82610f7d84610ea4565b610f62565b610ea4565b9050919050565b6000610f9982610f6c565b9050919050565b6000610fab82610f8e565b9050919050565b610fbb81610fa0565b82525050565b6000602082019050610fd66000830184610fb2565b92915050565b610fe581610ec4565b8114610ff057600080fd5b50565b60008135905061100281610fdc565b92915050565b6000806040838503121561101f5761101e610e3c565b5b600061102d85828601610e62565b925050602061103e85828601610ff3565b9150509250929050565b600060208201905061105d6000830184610ee5565b92915050565b6000819050919050565b600061108861108361107e84611063565b610f62565b610e41565b9050919050565b6110988161106d565b82525050565b60006020820190506110b3600083018461108f565b92915050565b7f4e487b7100000000000000000000000000000000000000000000000000000000600052601160045260246000fd5b60006110f382610e41565b91507fffffffffffffffffffffffffffffffffffffffffffffffffffffffffffffffff8203611125576111246110b9565b5b600182019050919050565b600082825260208201905092915050565b7f4368616c6c656e676520646f6573206e6f742065786973740000000000000000600082015250565b6000611177601883611130565b915061118282611141565b602082019050919050565b600060208201905081810360008301526111a68161116a565b9050919050565b7f4368616c6c656e676520616c726561647920686173206120706172746963697060008201527f616e740000000000000000000000000000000000000000000000000000000000602082015250565b6000611209602383611130565b9150611214826111ad565b604082019050919050565b60006020820190508181036000830152611238816111fc565b9050919050565b7f5374616b65206d757374206d61746368207468652063726561746f722773207360008201527f74616b6500000000000000000000000000000000000000000000000000000000602082015250565b600061129b602483611130565b91506112a68261123f565b604082019050919050565b600060208201905081810360008301526112ca8161128e565b9050919050565b7f4368616c6c656e676520616c7265616479207265736f6c766564000000000000600082015250565b6000611307601a83611130565b9150611312826112d1565b602082019050919050565b60006020820190508181036000830152611336816112fa565b9050919050565b7f496e76616c69642077696e6e6572000000000000000000000000000000000000600082015250565b6000611373600e83611130565b915061137e8261133d565b602082019050919050565b600060208201905081810360008301526113a281611366565b9050919050565b60006060820190506113be6000830186610ed6565b6113cb6020830185610ed6565b6113d86040830184610ee5565b949350505050565b6113e981610ef4565b81146113f457600080fd5b50565b600081519050611406816113e0565b92915050565b60006020828403121561142257611421610e3c565b5b6000611430848285016113f7565b91505092915050565b7f5374616b65206d757374206d61746368207468652073656e7420616d6f756e74600082015250565b600061146f602083611130565b915061147a82611439565b602082019050919050565b6000602082019050818103600083015261149e81611462565b9050919050565b60006114b082610e41565b91506114bb83610e41565b92508282026114c981610e41565b915082820484148315176114e0576114df6110b9565b5b509291505056fea2646970667358221220b238a0188f71373b9720ce347f47524ee49275fa84385b550ba9c38ae80f477e64736f6c634300081a0033",
	"linkReferences": {},
	"deployedLinkReferences": {}
}