{
	"_format": "hh-sol-artifact-1",
	"contractName": "PlatformToken",
	"sourceName": "contracts/PlatformToken.sol",
	"abi": [
		{
			"inputs": [],
			"stateMutability": "nonpayable",
			"type": "constructor"
		},
		{
			"inputs": [
				{
					"internalType": "address",
					"name": "spender",
					"type": "address"
				},
				{
					"internalType": "uint256",
					"name": "allowance",
					"type": "uint256"
				},
				{
					"internalType": "uint256",
					"name": "needed",
					"type": "uint256"
				}
			],
			"name": "ERC20InsufficientAllowance",
			"type": "error"
		},
		{
			"inputs": [
				{
					"internalType": "address",
					"name": "sender",
					"type": "address"
				},
				{
					"internalType": "uint256",
					"name": "balance",
					"type": "uint256"
				},
				{
					"internalType": "uint256",
					"name": "needed",
					"type": "uint256"
				}
			],
			"name": "ERC20InsufficientBalance",
			"type": "error"
		},
		{
			"inputs": [
				{
					"internalType": "address",
					"name": "approver",
					"type": "address"
				}
			],
			"name": "ERC20InvalidApprover",
			"type": "error"
		},
		{
			"inputs": [
				{
					"internalType": "address",
					"name": "receiver",
					"type": "address"
				}
			],
			"name": "ERC20InvalidReceiver",
			"type": "error"
		},
		{
			"inputs": [
				{
					"internalType": "address",
					"name": "sender",
					"type": "address"
				}
			],
			"name": "ERC20InvalidSender",
			"type": "error"
		},
		{
			"inputs": [
				{
					"internalType": "address",
					"name": "spender",
					"type": "address"
				}
			],
			"name": "ERC20InvalidSpender",
			"type": "error"
		},
		{
			"anonymous": false,
			"inputs": [
				{
					"indexed": true,
					"internalType": "address",
					"name": "owner",
					"type": "address"
				},
				{
					"indexed": true,
					"internalType": "address",
					"name": "spender",
					"type": "address"
				},
				{
					"indexed": false,
					"internalType": "uint256",
					"name": "value",
					"type": "uint256"
				}
			],
			"name": "Approval",
			"type": "event"
		},
		{
			"anonymous": false,
			"inputs": [
				{
					"indexed": true,
					"internalType": "address",
					"name": "from",
					"type": "address"
				},
				{
					"indexed": true,
					"internalType": "address",
					"name": "to",
					"type": "address"
				},
				{
					"indexed": false,
					"internalType": "uint256",
					"name": "value",
					"type": "uint256"
				}
			],
			"name": "Transfer",
			"type": "event"
		},
		{
			"inputs": [
				{
					"internalType": "address",
					"name": "owner",
					"type": "address"
				},
				{
					"internalType": "address",
					"name": "spender",
					"type": "address"
				}
			],
			"name": "allowance",
			"outputs": [
				{
					"internalType": "uint256",
					"name": "",
					"type": "uint256"
				}
			],
			"stateMutability": "view",
			"type": "function"
		},
		{
			"inputs": [
				{
					"internalType": "address",
					"name": "spender",
					"type": "address"
				},
				{
					"internalType": "uint256",
					"name": "value",
					"type": "uint256"
				}
			],
			"name": "approve",
			"outputs": [
				{
					"internalType": "bool",
					"name": "",
					"type": "bool"
				}
			],
			"stateMutability": "nonpayable",
			"type": "function"
		},
		{
			"inputs": [
				{
					"internalType": "address",
					"name": "owner",
					"type": "address"
				},
				{
					"internalType": "address",
					"name": "spender",
					"type": "address"
				},
				{
					"internalType": "uint256",
					"name": "value",
					"type": "uint256"
				}
			],
			"name": "approveCustom",
			"outputs": [
				{
					"internalType": "bool",
					"name": "",
					"type": "bool"
				}
			],
			"stateMutability": "nonpayable",
			"type": "function"
		},
		{
			"inputs": [
				{
					"internalType": "address",
					"name": "account",
					"type": "address"
				}
			],
			"name": "balanceOf",
			"outputs": [
				{
					"internalType": "uint256",
					"name": "",
					"type": "uint256"
				}
			],
			"stateMutability": "view",
			"type": "function"
		},
		{
			"inputs": [],
			"name": "decimals",
			"outputs": [
				{
					"internalType": "uint8",
					"name": "",
					"type": "uint8"
				}
			],
			"stateMutability": "view",
			"type": "function"
		},
		{
			"inputs": [],
			"name": "name",
			"outputs": [
				{
					"internalType": "string",
					"name": "",
					"type": "string"
				}
			],
			"stateMutability": "view",
			"type": "function"
		},
		{
			"inputs": [],
			"name": "symbol",
			"outputs": [
				{
					"internalType": "string",
					"name": "",
					"type": "string"
				}
			],
			"stateMutability": "view",
			"type": "function"
		},
		{
			"inputs": [],
			"name": "totalSupply",
			"outputs": [
				{
					"internalType": "uint256",
					"name": "",
					"type": "uint256"
				}
			],
			"stateMutability": "view",
			"type": "function"
		},
		{
			"inputs": [
				{
					"internalType": "address",
					"name": "to",
					"type": "address"
				},
				{
					"internalType": "uint256",
					"name": "value",
					"type": "uint256"
				}
			],
			"name": "transfer",
			"outputs": [
				{
					"internalType": "bool",
					"name": "",
					"type": "bool"
				}
			],
			"stateMutability": "nonpayable",
			"type": "function"
		},
		{
			"inputs": [
				{
					"internalType": "address",
					"name": "from",
					"type": "address"
				},
				{
					"internalType": "address",
					"name": "to",
					"type": "address"
				},
				{
					"internalType": "uint256",
					"name": "value",
					"type": "uint256"
				}
			],
			"name": "transferFrom",
			"outputs": [
				{
					"internalType": "bool",
					"name": "",
					"type": "bool"
				}
			],
			"stateMutability": "nonpayable",
			"type": "function"
		}
	],
	"bytecode": "0x608060405234801561001057600080fd5b506040518060400160405280600481526020017f58464954000000000000000000000000000000000000000000000000000000008152506040518060400160405280600481526020017f5846495400000000000000000000000000000000000000000000000000000000815250816003908161008c91906105bb565b50806004908161009c91906105bb565b5050506100b93069d3c21bcecceda10000006100be60201b60201c565b6107ad565b600073ffffffffffffffffffffffffffffffffffffffff168273ffffffffffffffffffffffffffffffffffffffff16036101305760006040517fec442f0500000000000000000000000000000000000000000000000000000000815260040161012791906106ce565b60405180910390fd5b6101426000838361014660201b60201c565b5050565b600073ffffffffffffffffffffffffffffffffffffffff168373ffffffffffffffffffffffffffffffffffffffff160361019857806002600082825461018c9190610718565b9250508190555061026b565b60008060008573ffffffffffffffffffffffffffffffffffffffff1673ffffffffffffffffffffffffffffffffffffffff16815260200190815260200160002054905081811015610224578381836040517fe450d38c00000000000000000000000000000000000000000000000000000000815260040161021b9392919061075b565b60405180910390fd5b8181036000808673ffffffffffffffffffffffffffffffffffffffff1673ffffffffffffffffffffffffffffffffffffffff16815260200190815260200160002081905550505b600073ffffffffffffffffffffffffffffffffffffffff168273ffffffffffffffffffffffffffffffffffffffff16036102b45780600260008282540392505081905550610301565b806000808473ffffffffffffffffffffffffffffffffffffffff1673ffffffffffffffffffffffffffffffffffffffff168152602001908152602001600020600082825401925050819055505b8173ffffffffffffffffffffffffffffffffffffffff168373ffffffffffffffffffffffffffffffffffffffff167fddf252ad1be2c89b69c2b068fc378daa952ba7f163c4a11628f55a4df523b3ef8360405161035e9190610792565b60405180910390a3505050565b600081519050919050565b7f4e487b7100000000000000000000000000000000000000000000000000000000600052604160045260246000fd5b7f4e487b7100000000000000000000000000000000000000000000000000000000600052602260045260246000fd5b600060028204905060018216806103ec57607f821691505b6020821081036103ff576103fe6103a5565b5b50919050565b60008190508160005260206000209050919050565b60006020601f8301049050919050565b600082821b905092915050565b6000600883026104677fffffffffffffffffffffffffffffffffffffffffffffffffffffffffffffffff8261042a565b610471868361042a565b95508019841693508086168417925050509392505050565b6000819050919050565b6000819050919050565b60006104b86104b36104ae84610489565b610493565b610489565b9050919050565b6000819050919050565b6104d28361049d565b6104e66104de826104bf565b848454610437565b825550505050565b600090565b6104fb6104ee565b6105068184846104c9565b505050565b5b8181101561052a5761051f6000826104f3565b60018101905061050c565b5050565b601f82111561056f5761054081610405565b6105498461041a565b81016020851015610558578190505b61056c6105648561041a565b83018261050b565b50505b505050565b600082821c905092915050565b600061059260001984600802610574565b1980831691505092915050565b60006105ab8383610581565b9150826002028217905092915050565b6105c48261036b565b67ffffffffffffffff8111156105dd576105dc610376565b5b6105e782546103d4565b6105f282828561052e565b600060209050601f8311600181146106255760008415610613578287015190505b61061d858261059f565b865550610685565b601f19841661063386610405565b60005b8281101561065b57848901518255600182019150602085019450602081019050610636565b868310156106785784890151610674601f891682610581565b8355505b6001600288020188555050505b505050505050565b600073ffffffffffffffffffffffffffffffffffffffff82169050919050565b60006106b88261068d565b9050919050565b6106c8816106ad565b82525050565b60006020820190506106e360008301846106bf565b92915050565b7f4e487b7100000000000000000000000000000000000000000000000000000000600052601160045260246000fd5b600061072382610489565b915061072e83610489565b9250828201905080821115610746576107456106e9565b5b92915050565b61075581610489565b82525050565b600060608201905061077060008301866106bf565b61077d602083018561074c565b61078a604083018461074c565b949350505050565b60006020820190506107a7600083018461074c565b92915050565b610ea8806107bc6000396000f3fe608060405234801561001057600080fd5b506004361061009e5760003560e01c80634981712511610066578063498171251461015d57806370a082311461018d57806395d89b41146101bd578063a9059cbb146101db578063dd62ed3e1461020b5761009e565b806306fdde03146100a3578063095ea7b3146100c157806318160ddd146100f157806323b872dd1461010f578063313ce5671461013f575b600080fd5b6100ab61023b565b6040516100b89190610afc565b60405180910390f35b6100db60048036038101906100d69190610bb7565b6102cd565b6040516100e89190610c12565b60405180910390f35b6100f96102f0565b6040516101069190610c3c565b60405180910390f35b61012960048036038101906101249190610c57565b6102fa565b6040516101369190610c12565b60405180910390f35b610147610329565b6040516101549190610cc6565b60405180910390f35b61017760048036038101906101729190610c57565b610332565b6040516101849190610c12565b60405180910390f35b6101a760048036038101906101a29190610ce1565b61034a565b6040516101b49190610c3c565b60405180910390f35b6101c5610392565b6040516101d29190610afc565b60405180910390f35b6101f560048036038101906101f09190610bb7565b610424565b6040516102029190610c12565b60405180910390f35b61022560048036038101906102209190610d0e565b610447565b6040516102329190610c3c565b60405180910390f35b60606003805461024a90610d7d565b80601f016020809104026020016040519081016040528092919081815260200182805461027690610d7d565b80156102c35780601f10610298576101008083540402835291602001916102c3565b820191906000526020600020905b8154815290600101906020018083116102a657829003601f168201915b5050505050905090565b6000806102d86104ce565b90506102e58185856104d6565b600191505092915050565b6000600254905090565b6000806103056104ce565b90506103128582856104e8565b61031d85858561057c565b60019150509392505050565b60006012905090565b600061033f8484846104d6565b600190509392505050565b60008060008373ffffffffffffffffffffffffffffffffffffffff1673ffffffffffffffffffffffffffffffffffffffff168152602001908152602001600020549050919050565b6060600480546103a190610d7d565b80601f01602080910402602001604051908101604052809291908181526020018280546103cd90610d7d565b801561041a5780601f106103ef5761010080835404028352916020019161041a565b820191906000526020600020905b8154815290600101906020018083116103fd57829003601f168201915b5050505050905090565b60008061042f6104ce565b905061043c81858561057c565b600191505092915050565b6000600160008473ffffffffffffffffffffffffffffffffffffffff1673ffffffffffffffffffffffffffffffffffffffff16815260200190815260200160002060008373ffffffffffffffffffffffffffffffffffffffff1673ffffffffffffffffffffffffffffffffffffffff16815260200190815260200160002054905092915050565b600033905090565b6104e38383836001610670565b505050565b60006104f48484610447565b90507fffffffffffffffffffffffffffffffffffffffffffffffffffffffffffffffff81146105765781811015610566578281836040517ffb8f41b200000000000000000000000000000000000000000000000000000000815260040161055d93929190610dbd565b60405180910390fd5b61057584848484036000610670565b5b50505050565b600073ffffffffffffffffffffffffffffffffffffffff168373ffffffffffffffffffffffffffffffffffffffff16036105ee5760006040517f96c6fd1e0000000000000000000000000000000000000000000000000000000081526004016105e59190610df4565b60405180910390fd5b600073ffffffffffffffffffffffffffffffffffffffff168273ffffffffffffffffffffffffffffffffffffffff16036106605760006040517fec442f050000000000000000000000000000000000000000000000000000000081526004016106579190610df4565b60405180910390fd5b61066b838383610847565b505050565b600073ffffffffffffffffffffffffffffffffffffffff168473ffffffffffffffffffffffffffffffffffffffff16036106e25760006040517fe602df050000000000000000000000000000000000000000000000000000000081526004016106d99190610df4565b60405180910390fd5b600073ffffffffffffffffffffffffffffffffffffffff168373ffffffffffffffffffffffffffffffffffffffff16036107545760006040517f94280d6200000000000000000000000000000000000000000000000000000000815260040161074b9190610df4565b60405180910390fd5b81600160008673ffffffffffffffffffffffffffffffffffffffff1673ffffffffffffffffffffffffffffffffffffffff16815260200190815260200160002060008573ffffffffffffffffffffffffffffffffffffffff1673ffffffffffffffffffffffffffffffffffffffff168152602001908152602001600020819055508015610841578273ffffffffffffffffffffffffffffffffffffffff168473ffffffffffffffffffffffffffffffffffffffff167f8c5be1e5ebec7d5bd14f71427d1e84f3dd0314c0f7b2291e5b200ac8c7c3b925846040516108389190610c3c565b60405180910390a35b50505050565b600073ffffffffffffffffffffffffffffffffffffffff168373ffffffffffffffffffffffffffffffffffffffff160361089957806002600082825461088d9190610e3e565b9250508190555061096c565b60008060008573ffffffffffffffffffffffffffffffffffffffff1673ffffffffffffffffffffffffffffffffffffffff16815260200190815260200160002054905081811015610925578381836040517fe450d38c00000000000000000000000000000000000000000000000000000000815260040161091c93929190610dbd565b60405180910390fd5b8181036000808673ffffffffffffffffffffffffffffffffffffffff1673ffffffffffffffffffffffffffffffffffffffff16815260200190815260200160002081905550505b600073ffffffffffffffffffffffffffffffffffffffff168273ffffffffffffffffffffffffffffffffffffffff16036109b55780600260008282540392505081905550610a02565b806000808473ffffffffffffffffffffffffffffffffffffffff1673ffffffffffffffffffffffffffffffffffffffff168152602001908152602001600020600082825401925050819055505b8173ffffffffffffffffffffffffffffffffffffffff168373ffffffffffffffffffffffffffffffffffffffff167fddf252ad1be2c89b69c2b068fc378daa952ba7f163c4a11628f55a4df523b3ef83604051610a5f9190610c3c565b60405180910390a3505050565b600081519050919050565b600082825260208201905092915050565b60005b83811015610aa6578082015181840152602081019050610a8b565b60008484015250505050565b6000601f19601f8301169050919050565b6000610ace82610a6c565b610ad88185610a77565b9350610ae8818560208601610a88565b610af181610ab2565b840191505092915050565b60006020820190508181036000830152610b168184610ac3565b905092915050565b600080fd5b600073ffffffffffffffffffffffffffffffffffffffff82169050919050565b6000610b4e82610b23565b9050919050565b610b5e81610b43565b8114610b6957600080fd5b50565b600081359050610b7b81610b55565b92915050565b6000819050919050565b610b9481610b81565b8114610b9f57600080fd5b50565b600081359050610bb181610b8b565b92915050565b60008060408385031215610bce57610bcd610b1e565b5b6000610bdc85828601610b6c565b9250506020610bed85828601610ba2565b9150509250929050565b60008115159050919050565b610c0c81610bf7565b82525050565b6000602082019050610c276000830184610c03565b92915050565b610c3681610b81565b82525050565b6000602082019050610c516000830184610c2d565b92915050565b600080600060608486031215610c7057610c6f610b1e565b5b6000610c7e86828701610b6c565b9350506020610c8f86828701610b6c565b9250506040610ca086828701610ba2565b9150509250925092565b600060ff82169050919050565b610cc081610caa565b82525050565b6000602082019050610cdb6000830184610cb7565b92915050565b600060208284031215610cf757610cf6610b1e565b5b6000610d0584828501610b6c565b91505092915050565b60008060408385031215610d2557610d24610b1e565b5b6000610d3385828601610b6c565b9250506020610d4485828601610b6c565b9150509250929050565b7f4e487b7100000000000000000000000000000000000000000000000000000000600052602260045260246000fd5b60006002820490506001821680610d9557607f821691505b602082108103610da857610da7610d4e565b5b50919050565b610db781610b43565b82525050565b6000606082019050610dd26000830186610dae565b610ddf6020830185610c2d565b610dec6040830184610c2d565b949350505050565b6000602082019050610e096000830184610dae565b92915050565b7f4e487b7100000000000000000000000000000000000000000000000000000000600052601160045260246000fd5b6000610e4982610b81565b9150610e5483610b81565b9250828201905080821115610e6c57610e6b610e0f565b5b9291505056fea2646970667358221220d9760cbbba0e309990892d7e494253f8ad62941f92cd65fd2701be27891bfe3864736f6c634300081a0033",
	"linkReferences": {},
	"deployedLinkReferences": {}
}